:020000040000FA
:040000005CEF00F0C1
:100008004D82FACF32F0FBCF33F0D9CF34F0DACFCC
:1000180035F0F3CF36F0F4CF37F0F6CF38F0F7CF2E
:1000280039F0F8CF3AF0F5CF3BF00E01C2B1CAA1D2
:1000380003D0BBEC0AF026D0C2B9CAA903D0BBECE6
:1000480009F020D0F2AC1ED0C5B3CDA308D001D89A
:1000580019D00500FA6E2B50FD6E2C500AD0C5B190
:10006800CDA10BD001D80ED00500FA6E2950FD6E37
:100078002A50FE6EFF6AFA501200C6B3CEA302D011
:10008800B6EC0AF03BC0F5FF3AC0F8FF39C0F7FFFD
:1000980038C0F6FF37C0F4FF36C0F3FF35C0DAFFCB
:1000A80034C0D9FF33C0FBFF32C0FAFF4D921100B4
:0400B80066EF0AF0F5
:100F00000062150015F2142610221158159212B025
:100F100015A815A01598159015881580150E15E2C1
:100F200012000000000000000000000000000000AF
:100F300000000000000A409F000A407F000A407F36
:100F40000000000E876E000E866E010E836E000E8E
:100F5000846E000E856E070E8C6E5E0E886EED0E32
:100F6000896E080E8A6E000E8B6E000E0F01266FC2
:100F7000000E216F000E196F000E2E6F400E116FC4
:100F8000000E256F000E2D6F000E186F000E106FF3
:100F9000000E206F000E2C6F000E0F6F000E176FEB
:100FA000070E1F6F000E246F0E6916691E692369F4
:100FB000070E2B6F0A930A950A970A990B830B85E4
:100FC0000B870B890C930C850C870C890A0E3C6EE1
:100FD000160E3D6EA2EC0AF0080E3C6E160E3D6E2B
:100FE0009DEC0AF0060E3C6E160E3D6E98EC0AF073
:100FF000040E3C6E160E3D6E93EC0AF00E01C28993
:101000000A0E906F0C0EB76F110EF06F020EA16FEB
:10101000140EF46F100EFB6F0F0EF36F0D0EB86F02
:10102000090E8F6F120071EC0AF0D8B00AD023D0ED
:10103000D8EC0AF01200D4EC0AF01200CCEC0AF062
:1010400012001FC02DF020C02EF001D809D00500DD
:10105000FA6E1350FD6E1450FE6EFF6AFA501200C5
:10106000010AD8B4EBD7030AD8B4E2D7010AD8B43E
:10107000E2D7070AE3D7019603C0D9FF04C0DAFF1D
:10108000034A042ADF50DCEC0AF00506D8A0060665
:1010900005500610D8A404D0000E2F6E060E03D003
:1010A000000E2F6E030E2E6E2E501200000E3C6EA0
:1010B000000E3D6E010EA7EC09F064C03CF065C067
:1010C0003DF066C03EF067C03FF0F9EC08F0010E5D
:1010D0003C6E000E3D6E000EA7EC09F064C03CF0C3
:1010E00065C03DF066C03EF067C03FF0F9EC08F027
:1010F000000E3C6E010E3D6E000EA7EC09F064C0C0
:101100003CF065C03DF066C03EF067C03FF0F9ECD2
:1011100008F0000E3C6E000E3D6E000EA7EC09F0CC
:101120001200F4EC0AF003C0D9FF04C0DAFFDF6E4E
:10113000034A042A0506D8A0060605500610D8B4AE
:1011400004D0EFEC0AF0050E1200018406D0C0ECCA
:101150000AF01200C4EC0AF0120019C02DF01AC0F7
:101160002EF001D809D00500FA6E0D50FD6E0E501C
:10117000FE6EFF6AFA501200010AD8B4EBD7030AD8
:10118000D8B4E5D7010AD8B4E2D7070AE3D741ECCF
:101190000AF0F28EF29EC80E0001646F000E656FB9
:1011A000000E666F000E676F56EC08F0010E3C6E85
:1011B000000E3D6E000EA7EC09F0640E3C6E000EB2
:1011C0003D6E000E3E6E000E3F6EF9EC08F0000E14
:1011D0003C6E000E3D6E000EA7EC09F0840E3C6ED6
:1011E000030E3D6E000E3E6E000E3F6EF9EC08F0F1
:1011F000DDD7000E0001606F000E616F000E626FA0
:10120000000E636F0FD0150E406EC60EE82EFED78F
:10121000402EFCD700D0010E00016027000E612394
:10122000622363233C50605D3D5061593E506259DA
:101230006351800A406E3F50800A4058D8B0120077
:10124000E2D7E6EC0AF001A606D071EC0AF0D8A0CD
:1012500002D00F0E0B6E0B50020D010EF324F66E32
:101260000F0EF420F76EF86A000EF8220900F5CF91
:1012700030F00900F5CF31F001D809D00500FA6E41
:101280003050FD6E3150FE6EFF6AFA5012000B6E48
:10129000120001840AD0D0EC0AF01200E9EC0AF046
:1012A000030E1200CCEC0AF0120019C02DF01AC087
:1012B0002EF001D809D00500FA6E0D50FD6E0E50CB
:1012C000FE6EFF6AFA501200010AD8B4EBD7030A87
:1012D000D8B4E1D7010AD8B4DED7070AD8B4DED72C
:1012E000E1D70196020E0C6E06D0D0EC0AF0120087
:1012F000CCEC0AF012001DC02DF01EC02EF001D85B
:1013000009D00500FA6E1150FD6E1250FE6EFF6A94
:10131000FA501200020AD8B4E8D7010AD8B4E5D7C7
:10132000E7D7040EBF6E000EBE6E000EC06E1E0E1E
:10133000BC6E000EBB6E0E01CE93C683020E3C6ED9
:10134000160E3D6E8EEC0AF0890EBD6E12003E6EDA
:101350003E50D8B402D0859401D085843C50D8B496
:1013600002D0859201D085823D50D8B402D08590BC
:101370001200858012000F010AB303EC0AF00F017E
:101380000AB5F1EC09F00F010AB7DFEC09F00F0123
:101390000AA91200CDEC09F0120041504210D8B455
:1013A0000BD001D809D00500FA6E4150FD6E4250B5
:1013B000FE6EFF6AFA5012000F010A9912004350A4
:1013C0004410D8B40BD001D809D00500FA6E4350B0
:1013D000FD6E4450FE6EFF6AFA5012000F010A972C
:1013E000120045504610D8B40BD001D809D00500E2
:1013F000FA6E4550FD6E4650FE6EFF6AFA501200BE
:101400000F010A95120047504810D8B40BD001D8EC
:1014100009D00500FA6E4750FD6E4850FE6EFF6A17
:10142000FA5012000F010A9312004B504C10D8B41E
:10143000120001D812000500FA6E4B50FD6E4C50A0
:10144000FE6EFF6AFA50120049504A10D8B41200DA
:1014500001D812000500FA6E4950FD6E4A50FE6E2A
:10146000FF6AFA501200000E0E01E16F000EE26FEB
:10147000000EE36F000EE46F000EE56F000EE66FE6
:101480001200F2EC0AF033EC0AF0A1EC07F04EEC9B
:101490000AF091EC09F05AEC0AF01200600E0E010D
:1014A000D86F000EDA6F000EDC6F080EDE6F000ED4
:1014B000DD6F12000E01CA91F2800C0E3C6E160E0A
:1014C0003D6EA7EC0AF00E01C281120000EE01F0A1
:1014D0002C0EEE6AE806FDE14D904D920001C7EF3B
:1014E00008F097AC03D02D6A2D2A01D02D6A2D303B
:1014F0001200018602500224DCEC0AF0030E1200F6
:101500000186D8800234DCEC0AF0050E120000ECF3
:101510000BF00190000E0C6E0E0E12003CC04BF052
:101520003DC04CF012003CC041F03DC042F0120002
:101530003CC043F03DC044F012003CC045F03DC00B
:1015400046F012003CC047F03DC048F012003CC0DD
:1015500049F03DC04AF012000196F6EC0AF0040E84
:1015600012000190000E0C6E0E0E12000E01CE93B2
:1015700015EC0AF012000E01CA9124EC0AF01200D8
:10158000ECEC0AF0090E1200ECEC0AF00A0E120064
:10159000EFEC0AF0050E1200FCEC0AF0000E12004F
:1015A000FEEC0AF0010E1200FEEC0AF0020E120030
:1015B000FEEC0AF0010E12002D6E2DC092FF1200FB
:1015C000E3EC0AF012000E01CD9312000E01CD9152
:1015D00012000E01CD811200978A97881200979A07
:1015E00097881200F29A1200925012009786120009
:1015F000050E1200010E120097841200978212004D
:0E16000012001200120012001200120012005E
:020000040020DA
:10000000FF0FFF0FFF0FFF0FFF0FFF0FFF0FFF0F80
:020000040030CA
:0C0000008CFEFFFF9FFFFFFFFFFFFFFFD4
:00000001FF
