:020000040000FA
:0400000064EF00F0B9
:100008004C82FACF3BF0FBCF3CF0D9CF3DF0DACFB2
:100018003EF00E01C2B1CAA103D00BEC16F046D0D7
:10002800C2B3CAA303D006EC16F040D0C2B5CAA525
:1000380003D001EC16F03AD0C2B9CAA903D072ECC9
:1000480011F034D0F2AC32D0C5B3CDA303D01DEC3F
:1000580016F02CD0C5B9CDA909D001D827D00500F4
:10006800FA6E0001F651FD6EF7510BD0C5BBCDAB52
:100078000CD001D81BD00500FA6E0001F451FD6EBA
:10008800F551FE6EFF6AFA501200C5B5CDA503D032
:10009800F7EC15F00BD0C6B7CEA703D067EC14F079
:1000A80005D0C6B3CEA302D0FCEC15F03EC0DAFFF3
:1000B8003DC0D9FF3CC0FBFF3BC0FAFF4C9211008A
:0400C800C5EF11F07F
:100F00000000002A2C1E2A00000000000000000043
:100F1000000000EE2B0A403B000A403B00001B048F
:100F20001C10D8A470D00001D651D711D8A468D015
:100F3000194A1A2A030E49184A10D8A413D0000ED1
:100F40004A6E010E496E000E2A6E000E296E000ECA
:100F50002C6E010E2B6EABEC0FF0000E1A6E000E15
:100F6000196E51D0020E49184A10D8A41AD01D503B
:100F7000191817E11E501A18D8A413D0000E2A6EA3
:100F8000000E296E000E2C6E010E2B6EABEC0FF0D6
:100F9000000E1A6E000E196E000E4A6E010E496E9A
:100FA00032D049044A10D8A42ED01F5019182BE172
:100FB00020501A18D8A427D0000E2A6E000E296ED1
:100FC000000E2C6E020E2B6EABEC0FF0000E1A6EA4
:100FD000000E196E000E4A6E020E496E172803E1CC
:100FE0001828D8B410D00001D407D8A0D507D45100
:100FF000D511D8A408D0000E1C6E020E1B6E03D0B3
:10100000D607D8A0D7070001CE05CF11D8A46FD03E
:10101000CC51CD11D8A468D0154A162A030E471812
:101020004810D8A413D0000E486E010E476E000E73
:101030002A6E010E296E000E2C6E010E2B6EABEC8B
:101040000FF0000E166E000E156E51D0020E4718EE
:101050004810D8A41AD0D051151817E1D15116183C
:10106000D8A413D0000E2A6E010E296E000E2C6E2D
:10107000010E2B6EABEC0FF0000E166E000E156E0F
:10108000000E486E010E476E32D047044810D8A4B7
:101090002ED0D25115182BE1D3511618D8A427D031
:1010A000000E2A6E010E296E000E2C6E020E2B6EA3
:1010B000ABEC0FF0000E166E000E156E000E486EB3
:1010C000020E476E132803E11428D8B410D0000193
:1010D000CA07D8A0CB07CA51CB11D8A408D0000E9C
:1010E000CF6F020ECE6F03D0CC07D8A0CD07000182
:1010F000C405C511D8A46FD0C251C311D8A468D0FB
:10110000114A122A030E45184610D8A413D0000E17
:10111000466E010E456E000E2A6E020E296E000EFE
:101120002C6E010E2B6EABEC0FF0000E126E000E4B
:10113000116E51D0020E45184610D8A41AD0C651CF
:10114000111817E1C7511218D8A413D0000E2A6E37
:10115000020E296E000E2C6E010E2B6EABEC0FF002
:10116000000E126E000E116E000E466E010E456EE0
:1011700032D045044610D8A42ED0C85111182BE106
:10118000C9511218D8A427D0000E2A6E020E296E5B
:10119000000E2C6E020E2B6EABEC0FF0000E126EDA
:1011A000000E116E000E466E020E456E0F2803E112
:1011B0001028D8B410D00001C007D8A0C107C05172
:1011C000C111D8A408D0000EC56F020EC46F03D0A1
:1011D000C207D8A0C3070001BA05BB11D8A46FD0BD
:1011E000B851B911D8A468D00D4A0E2A030E43187D
:1011F0004410D8A413D0000E446E010E436E000EAE
:101200002A6E030E296E000E2C6E010E2B6EABECB7
:101210000FF0000E0E6E000E0D6E51D0020E431830
:101220004410D8A41AD0BC510D1817E1BD510E18A6
:10123000D8A413D0000E2A6E030E296E000E2C6E59
:10124000010E2B6EABEC0FF0000E0E6E000E0D6E4D
:10125000000E446E010E436E32D043044410D8A4F5
:101260002ED0BE510D182BE1BF510E18D8A427D097
:10127000000E2A6E030E296E000E2C6E020E2B6ECF
:10128000ABEC0FF0000E0E6E000E0D6E000E446EF5
:10129000020E436E0B2803E10C28D8B410D00001D5
:1012A000B607D8A0B707B651B711D8A408D0000E1A
:1012B000BB6F020EBA6F03D0B807D8A0B907000100
:1012C000B005B111D8A46FD0AE51AF11D8A468D079
:1012D000094A0A2A030E41184210D8A413D0000E5E
:1012E000426E010E416E000E2A6E040E296E000E33
:1012F0002C6E010E2B6EABEC0FF0000E0A6E000E82
:10130000096E51D0020E41184210D8A41AD0B25121
:10131000091817E1B3510A18D8A413D0000E2A6E89
:10132000040E296E000E2C6E010E2B6EABEC0FF02E
:10133000000E0A6E000E096E000E426E010E416E26
:1013400032D041044210D8A42ED0B45109182BE158
:10135000B5510A18D8A427D0000E2A6E040E296EA3
:10136000000E2C6E020E2B6EABEC0FF0000E0A6E10
:10137000000E096E000E426E020E416E072803E158
:101380000828D8B410D00001AC07D8A0AD07AC51E4
:10139000AD11D8A408D0000EB16F020EB06F03D00B
:1013A000AE07D8A0AF070001A605A711D8A4120068
:1013B000A451A511D8A468D0054A062A030E3F18E7
:1013C0004010D8A413D0000E406E010E3F6E000EE8
:1013D0002A6E050E296E000E2C6E010E2B6EABECE4
:1013E0000FF0000E066E000E056E1200020E3F1882
:1013F0004010D8A41AD0A851051817E1A951061811
:10140000D8A413D0000E2A6E050E296E000E2C6E85
:10141000010E2B6EABEC0FF0000E066E000E056E8B
:10142000000E406E010E3F6E12003F044010D8A423
:101430001200AA5105182BE1AB510618D8A41200CE
:10144000000E2A6E050E296E000E2C6E020E2B6EFB
:10145000ABEC0FF0000E066E000E056E000E406E37
:10146000020E3F6E032803E10428D8B412000001E5
:10147000A207D8A0A307A251A311D8A41200000E5E
:10148000A76F020EA66F1200A407D8A0A50712002E
:10149000010180518111D8A421D082C11FF083C1E4
:1014A00020F084C11DF085C11EF086C1D6F087C131
:1014B000D7F0000E1C6E010E1B6E88C117F089C19B
:1014C00018F088C1D4F089C1D5F0000E1A6E000E54
:1014D000196E000E4A6E030E496E120080058111CE
:1014E000D8A422D082C1D2F083C1D3F084C1D0F07D
:1014F00085C1D1F086C1CCF087C1CDF0000E0001CE
:10150000CF6F010ECE6F88C113F089C114F088C16E
:10151000CAF089C1CBF0000E166E000E156E000EDB
:10152000486E030E476E1200020E80198111D8A476
:1015300022D082C1C8F083C1C9F084C1C6F085C180
:10154000C7F086C1C2F087C1C3F0000E0001C56FAD
:10155000010EC46F88C10FF089C110F088C1C0F0BE
:1015600089C1C1F0000E126E000E116E000E466EA3
:10157000030E456E1200030E80198111D8A422D0EB
:1015800082C1BEF083C1BFF084C1BCF085C1BDF093
:1015900086C1B8F087C1B9F0000E0001BB6F010E23
:1015A000BA6F88C10BF089C10CF088C1B6F089C14F
:1015B000B7F0000E0E6E000E0D6E000E446E030EA0
:1015C000436E1200040E80198111D8A422D082C16A
:1015D000B4F083C1B5F084C1B2F085C1B3F086C167
:1015E000AEF087C1AFF0000E0001B16F010EB06F19
:1015F00088C107F089C108F088C1ACF089C1ADF09D
:10160000000E0A6E000E096E000E426E030E416E51
:101610001200050E80198111D8A4120082C1AAF00F
:1016200083C1ABF084C1A8F085C1A9F086C1A4F044
:1016300087C1A5F0000E0001A76F010EA66F88C13B
:1016400003F089C104F088C1A2F089C1A3F0000EA3
:10165000066E000E056E000E406E030E3F6E120009
:1016600029502A10D8A421D02BC01FF02CC020F064
:101670002DC01DF02EC01EF02FC0D6F030C0D7F008
:10168000000E1C6E010E1B6E31C017F032C018F038
:1016900031C0D4F032C0D5F0000E1A6E000E196EB3
:1016A000000E4A6E030E496E120029042A10D8A4B7
:1016B00022D02BC0D2F02CC0D3F02DC0D0F02EC041
:1016C000D1F02FC0CCF030C0CDF0000E0001CF6FB4
:1016D000010ECE6F31C013F032C014F031C0CAF029
:1016E00032C0CBF0000E166E000E156E000E486E66
:1016F000030E476E1200020E29182A10D8A422D019
:101700002BC0C8F02CC0C9F02DC0C6F02EC0C7F049
:101710002FC0C2F030C0C3F0000E0001C56F010E33
:10172000C46F31C00FF032C010F031C0C0F032C011
:10173000C1F0000E126E000E116E000E466E030E0A
:10174000456E1200030E29182A10D8A422D02BC0EF
:10175000BEF02CC0BFF02DC0BCF02EC0BDF02FC01D
:10176000B8F030C0B9F0000E0001BB6F010EBA6FC7
:1017700031C00BF032C00CF031C0B6F032C0B7F05F
:10178000000E0E6E000E0D6E000E446E030E436EC4
:101790001200040E29182A10D8A422D02BC0B4F0AD
:1017A0002CC0B5F02DC0B2F02EC0B3F02FC0AEF0FB
:1017B00030C0AFF0000E0001B16F010EB06F31C04C
:1017C00007F032C008F031C0ACF032C0ADF0000E0E
:1017D0000A6E000E096E000E426E030E416E12007C
:1017E000050E29182A10D8A412002BC0AAF02CC06C
:1017F000ABF02DC0A8F02EC0A9F02FC0A4F030C0CF
:10180000A5F0000E0001A76F010EA66F31C003F016
:1018100032C004F031C0A2F032C0A3F0000E066E58
:10182000000E056E000E406E030E3F6E120048EC77
:1018300011F0859085828EEC15F0000E0101816F0C
:10184000030E806F000E836F140E826F000E856F83
:10185000280E846F000E876F000E866F000E896F52
:10186000010E886F48EC0AF0000E0101816F040E32
:10187000806F000E836F140E826F000E856F280E2E
:10188000846F000E876F140E866F000E896F010E35
:10189000886F48EC0AF0000E0101816F050E806F21
:1018A000000E836F140E826F000E856F280E846FFA
:1018B000000E876F280E866F000E896F010E886FED
:1018C00048EC0AF0000E0101816F000E806F000EDF
:1018D000836F140E826F000E856F280E846F000ECA
:1018E000876F000E866F000E896F010E886F48ECBF
:1018F0000AF0000E0101816F010E806F000E836FF0
:10190000140E826F000E856F280E846F000E876F95
:10191000140E866F000E896F010E886F48EC0AF076
:10192000000E0101816F020E806F000E836F140E96
:10193000826F000E856F280E846F000E876F280E51
:10194000866F000E896F010E886F48EC0AF0F28EE8
:10195000F28C85808592580E0101806F020E816F96
:10196000000E826F000E836F9CEC11F0000E0101DF
:10197000816F010E806F000E836F050E826F000E67
:10198000856F5F0E846F000E876F000E866FFF0EEF
:10199000896F886948EC0AF0010E0101906F050E0D
:1019A000916F400EB1EC0DF0050E0101806F000E3D
:1019B000816F000E826F000E836F9CEC11F01E0E83
:1019C0000101806F0F0E816F98EC15F0500E010130
:1019D000806F2A0E816FD9EC15F0F1EC10F0640ED7
:1019E0000101806F000E816F000E826F000E836F09
:1019F0009CEC11F0F2D7070E876EF80E866E000E83
:101A0000836E000E846E020E856E000E8C6EFB0ED1
:101A1000886EED0E896EF80E8A6E020E8B6E000EC9
:101A20000F01266F000E216F000E196F000E2E6F32
:101A3000000E116F000E256F000E2D6F000E186F37
:101A4000000E106F000E206F070E2C6F000E0F6F30
:101A5000000E176F010E1F6FF80E246F0E691669C6
:101A60001E692369070E2B6F0A910A930A970A9938
:101A70000B810B830B870B890C810C830C870C89E2
:101A8000129B138B148B1A971A991A9B1A9D1A9FE3
:101A90001B871B891B8B1B8D1B8F1C871C891C8B19
:101AA0001C8D1C8F6E0E0101806F2C0E816FCAEC95
:101AB00015F06C0E0101806F2C0E816FC5EC15F0D6
:101AC0006A0E0101806F2C0E816FC0EC15F0680E5C
:101AD0000101806F2C0E816FBBEC15F0660E0101C9
:101AE000806F2C0E816FB6EC15F0640E0101806FD3
:101AF0002C0E816FB1EC15F0620E0101806F2C0E7F
:101B0000816FACEC15F0600E0101806F2C0E816FBF
:101B1000A7EC15F05E0E0101806F2C0E816FA2EC18
:101B200015F05C0E0101806F2C0E816F9DEC15F09D
:101B30000E01C289120E0F01016F080E0E01B56F62
:101B4000190E906F090EF06F050EA16F140EF36F52
:101B5000110EFF6F070EA36F060EA26F180E8F6F88
:101B600012000101926F01019051F4EC12F0010199
:101B7000915155EC14F0030E01018C6F020E02EC32
:101B800015F0C70E01018C6F030E02EC15F00C0E60
:101B900001018C6F040E02EC15F0020E01018C6F36
:101BA000050E02EC15F0B80E01018C6F0D0E02EC63
:101BB00015F03A0E01018C6F0E0E02EC15F07D0E41
:101BC00001018C6F060E02EC15F0640E01018C6FA2
:101BD000070E02EC15F0140E01018C6F080E02ECDA
:101BE00015F0200E01018C6F0C0E02EC15F0930E17
:101BF00001018C6F100E02EC15F0380E01018C6F94
:101C0000110E02EC15F0800E01018C6F120E02EC29
:101C100015F0550E01018C6F190E02EC15F0000E37
:101C200001018C6F150E02EC15F0720E01018C6F24
:101C30001A0E02EC15F03C0E01018C6F1B0E02EC2B
:101C400015F0020E01018C6F1C0E02EC15F092C112
:101C50008CF11D0E02EC15F0240E01018C6F1E0E8E
:101C600002EC15F0000E01018C6F1F0E02EC15F056
:101C7000120029502A10D8A40ED086BA03D02B6A9D
:101C80002B2A01D02B6A2B3A2B4686502B18DF0BC0
:101C90002B18866E120029042A10D8A40FD086BCF7
:101CA00003D02B6A2B2A01D02B6A2B3A2B462B46CA
:101CB00086502B18BF0B2B18866E1200020E2918A7
:101CC0002A10D8A40ED086BE03D02B6A2B2A01D0AE
:101CD0002B6A2B322B3286502B187F0B2B18866EDB
:101CE0001200030E29182A10D8A40ED087B403D0EE
:101CF0002B6A2B2A01D02B6A2B462B4687502B1898
:101D0000FB0B2B18876E1200040E29182A10D8A47A
:101D10000DD087B203D02B6A2B2A01D02B6A2B4619
:101D200087502B18FD0B2B18876E1200050E2918F3
:101D30002A10D8A4120087B003D02B6A2B2A01D016
:101D40002B6A87502B18FE0B2B18876E120001018F
:101D5000816F0E0196BB5AD0180E8F6F190E906FBF
:101D6000110EFF6F120E0F01016F01018151040D61
:101D7000010EF326000EF422150EF324F66E0F0E5C
:101D8000F420F76EF86A000EF8220800F5CF95FEF1
:101D90008151040D150EF324F66E0F0EF420F76E2C
:101DA000F86A000EF8220800F55020090E01966F1F
:101DB000000E976F01018151040D020EF326000EF3
:101DC000F422150EF324F66E0F0EF420F76EF86A67
:101DD000000EF8220800F5CF93FE8151040D030E8A
:101DE000F326000EF422150EF324F66E0F0EF420E7
:101DF000F76EF86A000EF8220800F5CF80F18B50DC
:101E00008019FE0B80198B6E010E1200000E12005D
:101E1000510E346E225083EC10F0396E39A007D089
:101E2000000E2A6E030E296E39EC0EF0120039A254
:101E300007D0000E2A6E040E296E39EC0EF0120047
:101E400039A407D0000E2A6E050E296E39EC0EF06B
:101E5000120039A6120042EC14F0000E2A6E020E97
:101E6000296E000E2C6E140E2B6E000E2E6E140EAC
:101E70002D6E000E306E000E2F6EFF0E326E31682A
:101E800030EC0BF0550E376E000E10EC13F0000E18
:101E90002A6E020E296E000E2C6E140E2B6E000E92
:101EA0002E6E000E2D6E000E306E000E2F6E000E88
:101EB000326E010E316E30EC0BF01200000E01019B
:101EC000856F010E846F82058311D8A404D0000EA3
:101ED000856F000E846F80518111D8A406D084B123
:101EE00002D0869A01D0868A120080058111D8A47A
:101EF00006D084B102D0869C01D0868C1200020EDE
:101F000080198111D8A406D084B102D0869E01D058
:101F1000868E1200030E80198111D8A406D084B1D8
:101F200002D0879401D087841200040E8019811199
:101F3000D8A406D084B102D0879201D08782120043
:101F4000050E80198111D8A4120084B102D08790A7
:101F500001D087801200000E2E6E010E2D6E2B0414
:101F60002C10D8A404D0000E2E6E000E2D6E295019
:101F70002A10D8A406D02DB002D0869A01D0868A25
:101F8000120029042A10D8A406D02DB002D0869CB5
:101F900001D0868C1200020E29182A10D8A406D06F
:101FA0002DB002D0869E01D0868E1200030E291815
:101FB0002A10D8A406D02DB002D0879401D08784EF
:101FC0001200040E29182A10D8A406D02DB002D071
:101FD000879201D087821200050E29182A10D8A4F2
:101FE00012002DB002D0879001D087801200600EC1
:101FF0002624D96EDA6A000EDA22000EDF6E9DA466
:1020000013D0600E2624D96EDA6A000EDA2200019F
:10201000DF8201D809D00500FA6EDE51FD6EDF5176
:10202000FE6EFF6AFA5012009DA213D0600E2624A5
:10203000D96EDA6A000EDA220001DF8401D809D0F5
:102040000500FA6EDC51FD6EDD51FE6EFF6AFA503E
:102050001200600E2624D96EDA6A000EDA22DF50F2
:10206000D8B40CD001D812000500FA6E0001DA5184
:10207000FD6EDB51FE6EFF6AFA501200C8EC14F0E0
:1020800012000E01C59BEE0E0101806F1F0E816FC5
:10209000E3EC15F00E01C599B20E0101806F260E1A
:1020A000816FDEEC15F0080E9F6E900E9D6E040E93
:1020B0009E6E330E9B6E000E9C6E760E0101806F3D
:1020C0002C0E816FEDEC15F0400E0101806F2C0E8F
:1020D000816FE8EC15F0460E0101806F2C0E816FC8
:1020E000F2EC15F0000E236E000E286E000E276E27
:1020F000400E4B6E000E266E000E256E000E246EF6
:102100000E01C58B1200366E88EC15F0365099EC36
:1021100012F097AC05D0978497B4FED7FF0E12004B
:10212000345099EC12F097AC04D0978497A4F6D76A
:10213000FDD782EC15F0050E296E000E2A6E000EFA
:102140002B6E000E2C6EECEC11F088EC15F0365076
:10215000010999EC12F097AC04D0978497A4DED7CC
:10216000FDD7978695A0FED70E01CD9192CF35F081
:10217000010E6FEC13F082EC15F0355012000101E6
:102180008A6F86868698640E0101806F000E816FCB
:10219000000E826F000E836F34EC12F001018A5141
:1021A00069EC15F0640E0101806F000E816F000E66
:1021B000826F000E836F34EC12F00101895169ECDB
:1021C00015F001018B6F640E806F000E816F000EA1
:1021D000826F000E836F34EC12F0868801018B5100
:1021E00012002AEC16F00009D8B41200000E01010A
:1021F000816F020E806F000E836F050E826F000EDE
:10220000856F5F0E846F000E876F000E866F000E65
:10221000896F010E886F48EC0AF009D028EC16F09F
:102220000009D8B4FBD757EC12F0D7EC12F02AEC27
:1022300016F00009D8B41200F1D7336E868686985E
:10224000640E296E000E2A6E000E2B6E000E2C6E90
:1022500078EC12F0335010EC16F0640E296E000E7C
:102260002A6E000E2B6E000E2C6E78EC12F032509F
:1022700010EC16F0346E640E296E000E2A6E000EFD
:102280002B6E000E2C6E78EC12F086883450120003
:1022900026EC16F0E6EC14F0FBEC0CF01CEC15F060
:1022A00019EC16F02BEC13F076EC15F042EC13F071
:1022B00011EC12F041EC10F07CEC15F0BAEC12F0DD
:1022C000000ED8EC14F00009D8A41200000E010191
:1022D000816F000E806F000E836F010E826F5EECC7
:1022E0000FF012000F010AB12FEC14F00F010AB326
:1022F0001CEC14F00F010AB709EC14F00F010AB935
:10230000F6EC13F00F0112BBE3EC13F00F011AB758
:10231000D0EC13F00F011AB9BDEC13F00F011ABB8A
:10232000AAEC13F00F011ABD97EC13F00F011AAFCE
:10233000120084EC13F01200000E0101856F000EF4
:10234000866F000E876F000E886F10D0080E010197
:10235000846FC90EE82EFED7842FFCD700D0010E63
:1023600001018527000E8623872388238051855D00
:1023700081518659825187598851800A846F8351CF
:10238000800A8459D8B01200E1D7E00EF66E2A0E0A
:10239000F76E000EF86E00EE3FF010EE0CF0090044
:1023A000F5CFEEFFE550E150FAE101EE00F0800ECE
:1023B000EE6AE806FDE100EE60F0780EEE6AE806EF
:1023C000FDE100EE01F0280EEE6AE806FDE14C901A
:1023D0004C92000117EF0CF0000E2E6E000E2F6EC7
:1023E000000E306E000E316E0DD0080E2D6ECA0E2E
:1023F000E82EFED72D2EFCD7010E2E26000E2F2202
:102400003022312229502E5C2A502F582B50305820
:102410003150800A2D6E2C50800A2D58D8B01200F1
:10242000E4D70E01CA91F280740E0101806F2C0E68
:10243000816FD9EC15F00E01C281CA93F282720E3F
:102440000101806F2C0E816FD4EC15F00E01C28358
:10245000CA95F284700E0101806F2C0E816FCFEC53
:1024600015F00E01C2851200000E0101856F000EED
:10247000866F000E876F000E886F0AD000D000D0E4
:1024800000D0010E01018527000E862387238823B3
:102490008051855D81518659825187598851800AC2
:1024A000846F8351800A8459D8B01200E7D7245032
:1024B000D8B4FDD7600E2524D96EDA6A000EDA2270
:1024C000DF50236E000E2524D96EDA6A010EDA225F
:1024D000DF500101806F252A3F0E256402D0000ED7
:1024E000256E0E01C59B2406C58B0101805112008B
:1024F000000E2E6E000E2F6E000E306E000E316E2E
:1025000009D000D000D000D0010E2E26000E2F22C0
:102510003022312229502E5C2A502F582B5030580F
:102520003150800A2D6E2C50800A2D58D8B01200E0
:10253000E8D7336E33C092FF96AE18D0969E000E49
:102540002A6E000E296E030E2C6EE80E2B6E000E06
:102550002E6E000E2D6E000E306E000E2F6E000ED1
:10256000326E010E316E30EC0BF012000E01CDB167
:102570001200FCD70F01199589840A0E0E01B76F5E
:102580000F0EF16F0F01199789860B0E0E01B86FB0
:10259000100EF26F000E956E280E966E000E976E5E
:1025A000000E986EEF0E936ECD93C583120001015D
:1025B000806F4B50D8B4FDD70E01C5B903D080C190
:1025C0009AFF10D0C599400E2824D96EDA6A010E00
:1025D000DA2280C1DFFF282A3F0E286402D0000ED5
:1025E000286E4B06C589120001018F6F01018F050E
:1025F000D8A402D0800E0CD08F51D8A402D0600E87
:1026000007D0020E8F19D8A402D0200E01D0000EE0
:102610008E6F8E5110098C6F000E02EC15F01200B7
:10262000386E86888696385010EC16F0375010ECCD
:1026300016F086860AD0050E296E000E2A6E000E50
:102640002B6E000E2C6EECEC11F056EC15F0000920
:10265000D8A41200F0D7040EB96E000EB86E000EAA
:10266000BA6E9A0EB66E000EB56E0E01CE97C68784
:10267000580E0101806F2C0E816F93EC15F0990EAE
:10268000B76E1200040EBF6E000EBE6E000EC06E5E
:102690009A0EBC6E000EBB6E0E01CE93C6835A0E10
:1026A0000101806F2C0E816F98EC15F0900EBD6EBD
:1026B0001200400E4B6010D0400E2724D96EDA6A0B
:1026C000010EDA22DF509A6E272A3F0E276402D0CD
:1026D000000E276E4B2A12000E01C59912002A6EB9
:1026E0002A50D8B403D0296A292A01D0296A293A64
:1026F000294697502918DF0B2918976E978897B8A5
:10270000FED70E01CD9112000001E051E111D8B4C5
:102710000BD001D809D00500FA6EE051FD6EE151F1
:10272000FE6EFF6AFA5012000F011A9F120000019C
:10273000E251E311D8B40BD001D809D00500FA6EEC
:10274000E251FD6EE351FE6EFF6AFA5012000F0176
:102750001A9D12000001E451E511D8B40BD001D844
:1027600009D00500FA6EE451FD6EE551FE6EFF6A78
:10277000FA5012000F011A9B12000001E651E711F6
:10278000D8B40BD001D809D00500FA6EE651FD6E21
:10279000E751FE6EFF6AFA5012000F011A991200FB
:1027A0000001E851E911D8B40BD001D809D00500D7
:1027B000FA6EE851FD6EE951FE6EFF6AFA501200A2
:1027C0000F011A9712000001EA51EB11D8B40BD097
:1027D00001D809D00500FA6EEA51FD6EEB51FE6E8C
:1027E000FF6AFA5012000F01129B12000001EC5117
:1027F000ED11D8B40BD001D809D00500FA6EEC5118
:10280000FD6EED51FE6EFF6AFA5012000F010A993B
:1028100012000001EE51EF11D8B40BD001D809D04D
:102820000500FA6EEE51FD6EEF51FE6EFF6AFA5032
:1028300012000F010A9712000001F051F111D8B4F3
:102840000BD001D809D00500FA6EF051FD6EF151A0
:10285000FE6EFF6AFA5012000F010A931200000187
:10286000F251F311D8B40BD001D809D00500FA6E9B
:10287000F251FD6EF351FE6EFF6AFA5012000F0125
:102880000A911200010E376E000E386E0AD03850D1
:102890004BEC15F0382A00F01F0E386402D0000E01
:1028A000376E3704D8A41200F2D701018E6F040EE0
:1028B00001018E19D8A402D0800E01D0400E8F6F76
:1028C0008F510C098C6F010E02EC15F012000E01F5
:1028D000CE97014A022A025004E10A0E015CD8A0F8
:1028E000120078EC14F0000E026E000E016E120061
:1028F0000001D851D911D8B4120001D81200050036
:10290000FA6ED851FD6ED951FE6EFF6AFA50120070
:102910000001FE51FF11D8B4120001D812000500C9
:10292000FA6EFE51FD6EFF51FE6EFF6AFA50120004
:102930000001F851F911D8B4120001D812000500B5
:10294000FA6EF851FD6EF951FE6EFF6AFA501200F0
:102950000001FA51FB11D8B4120001D81200050091
:10296000FA6EFA51FD6EFB51FE6EFF6AFA501200CC
:102970000001FC51FD11D8B4120001D8120005006D
:10298000FA6EFC51FD6EFD51FE6EFF6AFA501200A8
:10299000000E2624D96EDA6A010EDA2299CFDFFF03
:1029A000262A3F0E266402D0000E266E242A12002C
:1029B0000101826F05D015EC16F01200000E120016
:1029C00001018251000AD8B4F6D7F8D7000E0E01E3
:1029D000E16F000EE26F000EE36F000EE46F000E79
:1029E000E56F000EE66F12000101816F0101815158
:1029F0008125826F8051D8B403D082514009826F03
:102A00008251120001018D6F8CC189F1000E01010C
:102A1000806F8D51F4EC14F0BFEC10F012004CB24A
:102A200060EF15F00101806F80C192FE0E01CDA50F
:102A3000FDD7CD9592511200610E0E01D86F000E98
:102A4000DA6F000EDC6F070EDE6F000EDD6F120016
:102A5000500E346E225083EC10F03A6E3A04D8A433
:102A6000120008EC0FF012002A6E2A502A242B6E56
:102A70002950D8B403D02B5040092B6E2B50120094
:102A80000101806F010180518025816F8151FE0B12
:102A9000816F81511200356EFF0E326E010E296E6C
:102AA000355034EC15F01DEC11F012000E0E4BEC0D
:102AB00015F0366E36AA02D0010E1200000E12007A
:102AC000296E29C092FE0E01CDA5FDD7CD9592515C
:102AD00012000101816F010181510FEC15F012000C
:102AE000030003000300030003000300A80E0F010E
:102AF000336F1F0E346F1200010E0F013F6F900EE7
:102B00003E6F1200978497B4FED70E01CD9112004C
:102B1000978097B0FED70E01CD911200700E40EC59
:102B200015F0226E120080C1D8F081C1D9F01200D8
:102B300080C1FEF081C1FFF0120080C1E0F081C1D0
:102B4000E1F0120080C1E2F081C1E3F0120080C127
:102B5000E4F081C1E5F0120080C1E6F081C1E7F048
:102B6000120080C1E8F081C1E9F0120080C1EAF0F2
:102B700081C1EBF0120080C1ECF081C1EDF01200D8
:102B800080C1EEF081C1EFF0120080C1F0F081C190
:102B9000F1F0120080C1F2F081C1F3F0120080C1A7
:102BA000F8F081C1F9F0120080C1FAF081C1FBF0A8
:102BB000120080C1FCF081C1FDF0120080C1F6F06E
:102BC00081C1F7F0120080C1F4F081C1F5F012006C
:102BD00080C1DCF081C1DDF0120080C1DEF081C176
:102BE000DFF0120080C1DAF081C1DBF012000E01CB
:102BF000CDA51200CD9512000E01CE9388EC14F0F5
:102C000012000E01CA9598EC14F012000E01CA933E
:102C1000A8EC14F012000E01CA91B8EC14F01200E6
:102C20002A6E2A5060EC15F01200000EA7EC0EF090
:102C30001200840E0F01316F12000E01CD931200AD
:102C40009D989D881200C8EC14F01200F29A1200B0
:102C50004B501200245012001200120012001200F9
:102C600012001200120012001200120012001200D4
:082C7000120012001200120014
:020000040020DA
:10000000FF0FFF0FFF0FFF0FFF0FFF0FFF0FFF0F80
:020000040030CA
:0C0000008CFFFFFF9FFFFFFFFFFFFFFFD3
:00000001FF
