:020000040000FA
:040000005CEF00F0C1
:100008005082FACF44F0FBCF45F0D9CF46F0DACF93
:1000180047F0F3CF48F0F4CF49F0F6CF4AF0F7CFE6
:100028004BF0F8CF4CF0F5CF4DF00E01C2B1CAA19C
:1000380003D0B6EC0AF026D0C2B9CAA903D034EC72
:1000480009F020D0F2AC1ED0C5B3CDA308D001D89A
:1000580019D00500FA6E2950FD6E2A500AD0C5B194
:10006800CDA10BD001D80ED00500FA6E2750FD6E39
:100078002850FE6EFF6AFA501200C6B3CEA302D013
:10008800B1EC0AF04DC0F5FF4CC0F8FF4BC0F7FFCC
:100098004AC0F6FF49C0F4FF48C0F3FF47C0DAFF83
:1000A80046C0D9FF45C0FBFF44C0FAFF509211007B
:0400B8004DEF0AF00E
:100F0000005815CE14C0146A10F2104E156C11A6BC
:100F1000159E1596158E1586157E157615DC141AF8
:100F200012000000000000000000000000000000AF
:100F300000000000000A4013000A40130000070EE2
:100F4000876E000E866E010E836E000E846E000E9C
:100F5000856E000E8C6E5E0E886EFC0E896E0F0E16
:100F60008A6E000E8B6E000E0F01266F000E216F31
:100F7000000E196F000E2E6F400E116F000E256FC0
:100F8000000E2D6F000E186F000E106F000E206FF8
:100F9000070E2C6F000E0F6F000E176F000E1F6FE5
:100FA000000E246F0E6916691E692369070E2B6FE8
:100FB0000A930A950A970A990B830B850B870B896D
:100FC0000C930C850C870C891A911A931A951A9711
:100FD0001B811B831B851B871C811C831C851C8715
:100FE0000E0E4E6E160E4F6E9DEC0AF00C0E4E6EEF
:100FF000160E4F6E98EC0AF00A0E4E6E160E4F6EDD
:1010000093EC0AF0080E4E6E160E4F6E8EEC0AF040
:10101000060E4E6E160E4F6E89EC0AF0040E4E6EE2
:10102000160E4F6E84EC0AF0020E4E6E160E4F6EC8
:101030007FEC0AF0000E4E6E160E4F6E7AEC0AF040
:101040000E01C2890A0E906F0C0EB76F110EF06F71
:10105000020EA16F120EEF6F100EF46F0F0EF36FF2
:101060000D0EB86F090E8F6F120058EC0AF0D8B051
:101070000AD02AD0D3EC0AF01200CFEC0AF012000A
:10108000C7EC0AF012001FC03FF020C040F001D8AA
:1010900009D00500FA6E1350FD6E1450FE6EFF6A03
:1010A000FA501200406E416A4150000AD8A4E8D7B5
:1010B0004050010AD8B4E4D7030AD8B4DBD7010AF8
:1010C000D8B4DBD7070ADCD7019603C0D9FF04C028
:1010D000DAFF034A042ADF50D7EC0AF00506D8A04D
:1010E000060605500610D8A402D0060E1200030E04
:1010F0001200F2EC0AF003C0D9FF04C0DAFFDF6E81
:10110000034A042A0506D8A0060605500610D8B4DE
:1011100004D0EDEC0AF0050E1200018406D0BBEC01
:101120000AF01200BFEC0AF0120019C03FF01AC01A
:1011300040F001D809D00500FA6E0D50FD6E0E503A
:10114000FE6EFF6AFA5012003F6E406A4050000A7D
:10115000D8A4E8D73F50010AD8B4E4D7030AD8B4DA
:10116000DED7010AD8B4DBD7070ADCD701840AD05E
:10117000CBEC0AF01200E7EC0AF0030E1200C7EC09
:101180000AF0120019C03FF01AC040F001D809D08F
:101190000500FA6E0D50FD6E0E50FE6EFF6AFA509D
:1011A00012003F6E406A4050000AD8A4E8D73F5072
:1011B000010AD8B4E4D7030AD8B4DAD7010AD8B4FC
:1011C000D7D7070AD8B4D7D7DAD7E4EC0AF001A604
:1011D00006D058EC0AF0D8A002D00F0E0B6E0B50C0
:1011E000020D010EF324F66E0F0EF420F76EF86A6E
:1011F000000EF8220900F5CF42F00900F5CF43F0C8
:1012000001D809D00500FA6E4250FD6E4350FE6EC3
:10121000FF6AFA5012000B6E12000196020E0C6E5D
:1012200006D0CBEC0AF01200C7EC0AF012001DC089
:101230003FF01EC040F001D809D00500FA6E1150F1
:10124000FD6E1250FE6EFF6AFA5012003F6E406A49
:101250004050000AD8A4E8D73F50020AD8B4E1D7DA
:10126000010AD8B4DED7E0D70F010AB3EAEC09F0DF
:101270000F010AB5D8EC09F00F010AB7C6EC09F066
:101280000F010AB9B4EC09F00F011AB1A2EC09F090
:101290000F011AB390EC09F00F011AB57EEC09F0BA
:1012A0000F011AA712006CEC09F01200040EBF6EB9
:1012B000000EBE6E000EC06E1E0EBC6E000EBB6E2B
:1012C0000E01CE93C683FE0E4E6E150E4F6E75EC5C
:1012D0000AF0890EBD6E12002B502C10D8B40BD022
:1012E00001D809D00500FA6E2B50FD6E2C50FE6E11
:1012F000FF6AFA5012000F011A9712002D502E109B
:10130000D8B40BD001D809D00500FA6E2D50FD6E6F
:101310002E50FE6EFF6AFA5012000F011A9512004D
:101320002F503010D8B40BD001D809D00500FA6E78
:101330002F50FD6E3050FE6EFF6AFA5012000F0102
:101340001A93120031503210D8B40BD001D809D002
:101350000500FA6E3150FD6E3250FE6EFF6AFA5093
:1013600012000F011A91120033503410D8B40BD070
:1013700001D809D00500FA6E3350FD6E3450FE6E70
:10138000FF6AFA5012000F010A9912003550361008
:10139000D8B40BD001D809D00500FA6E3550FD6ED7
:1013A0003650FE6EFF6AFA5012000F010A971200C3
:1013B00037503810D8B40BD001D809D00500FA6ED8
:1013C0003750FD6E3850FE6EFF6AFA5012000F0162
:1013D0000A95120039503A10D8B40BD001D809D070
:1013E0000500FA6E3950FD6E3A50FE6EFF6AFA50F3
:1013F00012000F010A9312003D503E10D8B41200A3
:1014000001D812000500FA6E3D50FD6E3E50FE6E92
:10141000FF6AFA5012003B503C10D8B4120001D8B9
:1014200012000500FA6E3B50FD6E3C50FE6EFF6AE6
:10143000FA501200000E0E01E16F000EE26F000E76
:10144000E36F000EE46F000EE56F000EE66F120012
:10145000F0EC0AF01AEC0AF09FEC07F035EC0AF019
:1014600056EC09F041EC0AF01200600E0E01D86F44
:10147000000EDA6F000EDC6F080EDE6F000EDD6FFF
:1014800012000E01CA91F280100E4E6E160E4F6EB3
:10149000A2EC0AF00E01C281120000EE01F02A0E49
:1014A000EE6AE806FDE1509050920001DBEF0AF091
:1014B00097AC03D03F6A3F2A01D03F6A3F30120009
:1014C000018602500224D7EC0AF0030E12000186B6
:1014D000D8800234D7EC0AF0050E1200FEEC0AF0B8
:1014E0000190000E0C6E0E0E12004EC03DF04FC06B
:1014F0003EF012004EC02BF04FC02CF012004EC038
:101500002DF04FC02EF012004EC02FF04FC030F023
:1015100012004EC031F04FC032F012004EC033F016
:101520004FC034F012004EC035F04FC036F01200FC
:101530004EC037F04FC038F012004EC039F04FC0E7
:101540003AF012004EC03BF04FC03CF01200019642
:10155000F4EC0AF0040E12000190000E0C6E0E0E58
:1015600012000E01CE93FCEC09F012000E01CA919C
:101570000BEC0AF01200EAEC0AF0090E1200EAEC99
:101580000AF00A0E1200EDEC0AF0050E1200FAEC59
:101590000AF0000E1200FCEC0AF0010E1200FCEC46
:1015A0000AF0020E1200FCEC0AF0010E12003F6E6F
:1015B0003FC092FF120028EC0AF0FFD7E1EC0AF0DE
:1015C00012000E01CD9312000E01CD9112000E01FA
:1015D000CD811200978A97881200979A97881200F7
:1015E000F29A12009250120097861200050E120015
:1015F000010E12009784120097821200120012004E
:10160000120012001200120012001200120012004A
:021610001200C6
:020000040020DA
:10000000FF0FFF0FFF0FFF0FFF0FFF0FFF0FFF0F80
:020000040030CA
:0C0000008CFEFFFF9FFFFFFFFFFFFFFFD4
:00000001FF
