:020000040000FA
:0400000064EF00F0B9
:100008005282FACF41F0FBCF42F0D9CF43F0DACF9A
:1000180044F00E01C2B1CAA103D087EC15F046D056
:10002800C2B3CAA303D082EC15F040D0C2B5CAA5AA
:1000380003D07DEC15F03AD0C2B9CAA903D047EC79
:1000480011F034D0F2AC32D0C5B3CDA303D09EECBE
:1000580015F02CD0C5B9CDA909D001D827D00500F5
:10006800FA6E0001EE51FD6EEF510BD0C5BBCDAB62
:100078000CD001D81BD00500FA6E0001EC51FD6EC2
:10008800ED51FE6EFF6AFA501200C5B5CDA503D03A
:1000980073EC15F00BD0C6B7CEA703D0CCEC13F099
:1000A80005D0C6B3CEA302D078EC15F044C0DAFF71
:1000B80043C0D9FF42C0FBFF41C0FAFF5292110072
:0400C80071EF11F0D3
:100F00000000002C2BE8280000000000000000007A
:100F1000000000E62A0A403B000A403B0000230490
:100F20002410D8A46ED01F502010D8A467D0214A16
:100F3000222A030E4F185010D8A413D0000E506E62
:100F4000010E4F6E000E326E000E316E000E346ECA
:100F5000010E336EADEC0FF0000E226E000E216E0E
:100F600050D0020E4F185010D8A41AD02550211876
:100F700017E126502218D8A413D0000E326E000EAE
:100F8000316E000E346E010E336EADEC0FF0000EBC
:100F9000226E000E216E000E506E010E4F6E31D08B
:100FA0004F045010D8A42DD0275021182AE12850E2
:100FB0002218D8A426D0000E326E000E316E000E1C
:100FC000346E020E336EADEC0FF0000E226E000E8A
:100FD000216E000E506E020E4F6E1D2803E11E287A
:100FE000D8B40FD01B06D8A01C061B501C10D8A4C8
:100FF00008D0000E246E020E236E03D01F06D8A068
:1010000020060001CE05CF11D8A46FD0CC51CD1150
:10101000D8A468D0154A162A030E4D184E10D8A42D
:1010200013D0000E4E6E010E4D6E000E326E010E8C
:10103000316E000E346E010E336EADEC0FF0000E0B
:10104000166E000E156E51D0020E4D184E10D8A41B
:101050001AD01750151817E118501618D8A413D025
:10106000000E326E010E316E000E346E010E336EC4
:10107000ADEC0FF0000E166E000E156E000E4E6EEB
:10108000010E4D6E32D04D044E10D8A42ED0195002
:1010900015182BE11A501618D8A427D0000E326E5E
:1010A000010E316E000E346E020E336EADEC0FF099
:1010B000000E166E000E156E000E4E6E020E4D6E78
:1010C000132803E11428D8B410D00001CA07D8A00F
:1010D000CB07CA51CB11D8A408D0000ECF6F020E97
:1010E000CE6F03D0CC07D8A0CD070001C405C51131
:1010F000D8A46FD0C251C311D8A468D0114A122A03
:10110000030E4B184C10D8A413D0000E4C6E010ED9
:101110004B6E000E326E020E316E000E346E010EFA
:10112000336EADEC0FF0000E126E000E116E51D04A
:10113000020E4B184C10D8A41AD0C651111817E142
:10114000C7511218D8A413D0000E326E020E316EA1
:10115000000E346E010E336EADEC0FF0000E126E09
:10116000000E116E000E4C6E010E4B6E32D04B0411
:101170004C10D8A42ED0C85111182BE1C951121807
:10118000D8A427D0000E326E020E316E000E346EDF
:10119000020E336EADEC0FF0000E126E000E116EEB
:1011A000000E4C6E020E4B6E0F2803E11028D8B4CF
:1011B00010D00001C007D8A0C107C051C111D8A4E8
:1011C00008D0000EC56F020EC46F03D0C207D8A0AE
:1011D000C3070001BA05BB11D8A46FD0B851B9112B
:1011E000D8A468D00D4A0E2A030E49184A10D8A474
:1011F00013D0000E4A6E010E496E000E326E030EC1
:10120000316E000E346E010E336EADEC0FF0000E39
:101210000E6E000E0D6E51D0020E49184A10D8A461
:101220001AD0BC510D1817E1BD510E18D8A413D017
:10123000000E326E030E316E000E346E010E336EF0
:10124000ADEC0FF0000E0E6E000E0D6E000E4A6E2D
:10125000010E496E32D049044A10D8A42ED0BE5196
:101260000D182BE1BF510E18D8A427D0000E326EF6
:10127000030E316E000E346E020E336EADEC0FF0C5
:10128000000E0E6E000E0D6E000E4A6E020E496EBE
:101290000B2803E10C28D8B410D00001B607D8A061
:1012A000B707B651B711D8A408D0000EBB6F020E15
:1012B000BA6F03D0B807D8A0B9070001B005B111C3
:1012C000D8A46FD0AE51AF11D8A468D0094A0A2A69
:1012D000030E47184810D8A413D0000E486E010E14
:1012E000476E000E326E040E316E000E346E010E2B
:1012F000336EADEC0FF0000E0A6E000E096E51D089
:10130000020E47184810D8A41AD0B251091817E194
:10131000B3510A18D8A413D0000E326E040E316EE9
:10132000000E346E010E336EADEC0FF0000E0A6E3F
:10133000000E096E000E486E010E476E32D0470453
:101340004810D8A42ED0B45109182BE1B5510A1871
:10135000D8A427D0000E326E040E316E000E346E0B
:10136000020E336EADEC0FF0000E0A6E000E096E29
:10137000000E486E020E476E072803E10828D8B415
:1013800010D00001AC07D8A0AD07AC51AD11D8A466
:1013900008D0000EB16F020EB06F03D0AE07D8A018
:1013A000AF070001A605A711D8A41200A451A511EA
:1013B000D8A468D0054A062A030E45184610D8A4BA
:1013C00013D0000E466E010E456E000E326E050EF5
:1013D000316E000E346E010E336EADEC0FF0000E68
:1013E000066E000E056E1200020E45184610D8A4B7
:1013F0001AD0A851051817E1A9510618D8A413D07E
:10140000000E326E050E316E000E346E010E336E1C
:10141000ADEC0FF0000E066E000E056E000E466E6F
:10142000010E456E120045044610D8A41200AA51C0
:1014300005182BE1AB510618D8A41200000E326E2D
:10144000050E316E000E346E020E336EADEC0FF0F1
:10145000000E066E000E056E000E466E020E456E04
:10146000032803E10428D8B412000001A207D8A081
:10147000A307A251A311D8A41200000EA76F020E59
:10148000A66F1200A407D8A0A50712000101805181
:101490008111D8A421D082C127F083C128F084C152
:1014A00025F085C126F086C11FF087C120F0000E0F
:1014B000246E010E236E88C11DF089C11EF088C103
:1014C0001BF089C11CF0000E226E000E216E000E72
:1014D000506E030E4F6E120080058111D8A422D0E9
:1014E00082C119F083C11AF084C117F085C118F0C8
:1014F00086C1CCF087C1CDF0000E0001CF6F010E88
:10150000CE6F88C113F089C114F088C1CAF089C1B7
:10151000CBF0000E166E000E156E000E4E6E030E12
:101520004D6E1200020E80198111D8A422D082C102
:10153000C8F083C1C9F084C1C6F085C1C7F086C1B7
:10154000C2F087C1C3F0000E0001C56F010EC46F69
:1015500088C10FF089C110F088C1C0F089C1C1F005
:10156000000E126E000E116E000E4C6E030E4B6ECE
:101570001200030E80198111D8A422D082C1BEF0BE
:1015800083C1BFF084C1BCF085C1BDF086C1B8F095
:1015900087C1B9F0000E0001BB6F010EBA6F88C1A0
:1015A0000BF089C10CF088C1B6F089C1B7F0000E0C
:1015B0000E6E000E0D6E000E4A6E030E496E120086
:1015C000040E80198111D8A422D082C1B4F083C145
:1015D000B5F084C1B2F085C1B3F086C1AEF087C169
:1015E000AFF0000E0001B16F010EB06F88C107F0BF
:1015F00089C108F088C1ACF089C1ADF0000E0A6E57
:10160000000E096E000E486E030E476E1200050EA6
:1016100080198111D8A4120082C1AAF083C1ABF055
:1016200084C1A8F085C1A9F086C1A4F087C1A5F046
:10163000000E0001A76F010EA66F88C103F089C1DB
:1016400004F088C1A2F089C1A3F0000E066E000E5E
:10165000056E000E466E030E456E120031503210BC
:10166000D8A421D033C027F034C028F035C025F0ED
:1016700036C026F037C01FF038C020F0000E246EB0
:10168000010E236E39C01DF03AC01EF039C01BF0A8
:101690003AC01CF0000E226E000E216E000E506E3D
:1016A000030E4F6E120031043210D8A422D033C082
:1016B00019F034C01AF035C017F036C018F037C032
:1016C000CCF038C0CDF0000E0001CF6F010ECE6F10
:1016D00039C013F03AC014F039C0CAF03AC0CBF0A8
:1016E000000E166E000E156E000E4E6E030E4D6E41
:1016F0001200020E31183210D8A422D033C0C8F024
:1017000034C0C9F035C0C6F036C0C7F037C0C2F02B
:1017100038C0C3F0000E0001C56F010EC46F39C0A0
:101720000FF03AC010F039C0C0F03AC0C1F0000E5E
:10173000126E000E116E000E4C6E030E4B6E1200F8
:10174000030E31183210D8A422D033C0BEF034C0FA
:10175000BFF035C0BCF036C0BDF037C0B8F038C0FF
:10176000B9F0000E0001BB6F010EBA6F39C00BF06B
:101770003AC00CF039C0B6F03AC0B7F0000E0E6EA9
:10178000000E0D6E000E4A6E030E496E1200040E1E
:1017900031183210D8A422D033C0B4F034C0B5F020
:1017A00035C0B2F036C0B3F037C0AEF038C0AFF0DD
:1017B000000E0001B16F010EB06F39C007F03AC0E2
:1017C00008F039C0ACF03AC0ADF0000E0A6E000E61
:1017D000096E000E486E030E476E1200050E31189A
:1017E0003210D8A4120033C0AAF034C0ABF035C018
:1017F000A8F036C0A9F037C0A4F038C0A5F0000E9C
:101800000001A76F010EA66F39C003F03AC004F0C3
:1018100039C0A2F03AC0A3F0000E066E000E056EAD
:10182000000E466E030E456E12001DEC11F0859001
:1018300085820AEC15F0000E0101816F030E806FA6
:10184000000E836F140E826F000E856F280E846F5A
:10185000000E876F000E866F000E896F010E886F75
:1018600046EC0AF0000E0101816F040E806F000E3D
:10187000836F140E826F000E856F280E846F000E2A
:10188000876F140E866F000E896F010E886F46EC0D
:101890000AF0000E0101816F050E806F000E836F4C
:1018A000140E826F000E856F280E846F000E876FF6
:1018B000280E866F000E896F010E886F46EC0AF0C5
:1018C000000E0101816F000E806F000E836F140EF9
:1018D000826F000E856F280E846F000E876F000EDA
:1018E000866F000E896F010E886F46EC0AF0000EBD
:1018F0000101816F010E806F000E836F140E826FE5
:10190000000E856F280E846F000E876F140E866F91
:10191000000E896F010E886F46EC0AF0000E01017F
:10192000816F020E806F000E836F140E826F000EA7
:10193000856F280E846F000E876F280E866F000E4D
:10194000896F010E886F46EC0AF0F28EF28C85806A
:101950008592580E0001F86F020EF96F000EFA6FB3
:10196000000EFB6FC1EC10F0000E0101816F010E43
:10197000806F000E836F050E826F000E856F5F0E05
:10198000846F000E876F000E866FFF0E896F886967
:1019900046EC0AF0010E0101826F050E836F400EC6
:1019A000AFEC0DF0050E0001F86F000EF96F000EA0
:1019B000FA6F000EFB6FC1EC10F01E0E0001F86F05
:1019C0000F0EF96F14EC15F0340E0001F86F290EAC
:1019D000F96F55EC15F0F1EC10F0640E0001F86FA2
:1019E000000EF96F000EFA6F000EFB6FC1EC10F0E5
:1019F000F2D7070E876EF80E866E000E836E000E0D
:101A0000846E020E856E000E8C6EFB0E886EED0EDF
:101A1000896EF80E8A6E020E8B6E000E0F01266F15
:101A2000000E216F000E196F000E2E6F000E116F49
:101A3000000E256F000E2D6F000E186F000E106F38
:101A4000000E206F070E2C6F000E0F6F000E176F29
:101A5000010E1F6FF80E246F0E6916691E69236947
:101A6000070E2B6F0A910A930A970A990B810B8331
:101A70000B870B890C810C830C870C89129B138BB1
:101A8000148B1A971A991A9B1A9D1A9F1B871B89E8
:101A90001B8B1B8D1B8F1C871C891C8B1C8D1C8F0B
:101AA000700E0001F86F2B0EF96F46EC15F06E0EFC
:101AB0000001F86F2B0EF96F41EC15F06C0E000170
:101AC000F86F2B0EF96F3CEC15F06A0E0001F86F01
:101AD0002B0EF96F37EC15F0680E0001F86F2B0E26
:101AE000F96F32EC15F0660E0001F86F2B0EF96FEE
:101AF0002DEC15F0640E0001F86F2B0EF96F28EC39
:101B000015F0620E0001F86F2B0EF96F23EC15F043
:101B1000600E0001F86F2B0EF96F1EEC15F05E0ED3
:101B20000001F86F2B0EF96F19EC15F00E01C28948
:101B3000120E0F01016F080E0E01B56F190E906F96
:101B4000090EF06F050EA16F140EF36F110EFF6FEB
:101B5000070EA36F060EA26F180E8F6F1200010101
:101B6000846F010182515CEC12F001018351EAECB7
:101B700012F0030E0001FE6F020E67EC14F0C70EA8
:101B80000001FE6F030E67EC14F00C0E0001FE6FF7
:101B9000040E67EC14F0020E0001FE6F050E67ECF8
:101BA00014F0B80E0001FE6F0D0E67EC14F03A0E43
:101BB0000001FE6F0E0E67EC14F07D0E0001FE6F4B
:101BC000060E67EC14F0640E0001FE6F070E67EC62
:101BD00014F0140E0001FE6F080E67EC14F0200ED6
:101BE0000001FE6F0C0E67EC14F0930E0001FE6F07
:101BF000100E67EC14F0380E0001FE6F110E67EC4A
:101C000014F0800E0001FE6F120E67EC14F0010E4E
:101C10000001FE6F190E67EC14F0450E0001FE6F17
:101C2000180E67EC14F0000E0001FE6F150E67EC45
:101C300014F0700E0001FE6F1A0E67EC14F03C0EEB
:101C40000001FE6F1B0E67EC14F0040E0001FE6F26
:101C50001C0E67EC14F084C1FEF01D0E67EC14F04E
:101C6000220E0001FE6F1E0E67EC14F0000E000144
:101C7000FE6F1F0E67EC14F0120031503210D8A422
:101C80000ED086BA03D0336A332A01D0336A333A8E
:101C9000334686503318DF0B3318866E120031043A
:101CA0003210D8A40FD086BC03D0336A332A01D0B7
:101CB000336A333A3346334686503318BF0B3318F2
:101CC000866E1200020E31183210D8A40ED086BED5
:101CD00003D0336A332A01D0336A33323332865029
:101CE00033187F0B3318866E1200030E3118321032
:101CF000D8A40ED087B403D0336A332A01D0336A14
:101D00003346334687503318FB0B3318876E120067
:101D1000040E31183210D8A40DD087B203D0336A24
:101D2000332A01D0336A334687503318FD0B3318FA
:101D3000876E1200050E31183210D8A4120087B039
:101D400003D0336A332A01D0336A87503318FE0B2D
:101D50003318876E12000001F96F0E0196BB5AD03E
:101D6000180E8F6F190E906F110EFF6F120E0F016C
:101D7000016F0001F951040D010EF326000EF4224B
:101D8000150EF324F66E0F0EF420F76EF86A000EAF
:101D9000F8220800F5CF95FEF951040D150EF32435
:101DA000F66E0F0EF420F76EF86A000EF8220800A7
:101DB000F55020090E01966F000E976F0001F95142
:101DC000040D020EF326000EF422150EF324F66E17
:101DD0000F0EF420F76EF86A000EF8220800F5CF17
:101DE00093FEF951040D030EF326000EF422150E96
:101DF000F324F66E0F0EF420F76EF86A000EF82248
:101E00000800F5CFF8F08B50F819FE0BF8198B6E1F
:101E1000010E1200000E1200510E3C6E2A5085EC8D
:101E200010F03F6E3FA007D0000E326E030E316EF1
:101E30003DEC0EF012003FA207D0000E326E040EF1
:101E4000316E3DEC0EF012003FA407D0000E326E52
:101E5000050E316E3DEC0EF012003FA61200000E92
:101E6000326E020E316E000E346E140E336E000EA2
:101E7000366E140E356E000E386E000E376EFF0E85
:101E80003A6E39682EEC0BF0550E3A6E410E79EC35
:101E900012F0000E326E020E316E000E346E140E11
:101EA000336E000E366E000E356E000E386E000E6C
:101EB000376E000E3A6E010E396E2EEC0BF01200EA
:101EC000000E0001FD6F010EFC6FFA05FB11D8A496
:101ED00004D0000EFD6F000EFC6FF851F911D8A46C
:101EE00006D0FCB102D0869A01D0868A1200F8058D
:101EF000F911D8A406D0FCB102D0869C01D0868C02
:101F00001200020EF819F911D8A406D0FCB102D0C3
:101F1000869E01D0868E1200030EF819F911D8A4FE
:101F200006D0FCB102D0879401D087841200040E41
:101F3000F819F911D8A406D0FCB102D0879201D0CB
:101F400087821200050EF819F911D8A41200FCB10D
:101F500002D0879001D087801200000E366E010EED
:101F6000356E33043410D8A404D0000E366E000E43
:101F7000356E31503210D8A406D035B002D0869AD2
:101F800001D0868A120031043210D8A406D035B0B0
:101F900002D0869C01D0868C1200020E31183210BD
:101FA000D8A406D035B002D0869E01D0868E12000D
:101FB000030E31183210D8A406D035B002D0879461
:101FC00001D087841200040E31183210D8A406D034
:101FD00035B002D0879201D087821200050E3118E9
:101FE0003210D8A4120035B002D0879001D087807B
:101FF0001200600E2E24D96EDA6A000EDA22000E6C
:10200000DF6E9DA413D0600E2E24D96EDA6A000E06
:10201000DA220001DF8201D809D00500FA6ED6511C
:10202000FD6ED751FE6EFF6AFA5012009DA213D0CA
:10203000600E2E24D96EDA6A000EDA220001DF84E7
:1020400001D809D00500FA6ED451FD6ED551FE6E4F
:10205000FF6AFA501200600E2E24D96EDA6A000E62
:10206000DA22DF50D8B40CD001D812000500FA6E85
:102070000001D251FD6ED351FE6EFF6AFA5012007C
:102080002DEC14F012000E01C59BF20E0001F86F4A
:102090001F0EF96F5FEC15F00E01C5997E0E000161
:1020A000F86F250EF96F5AEC15F0080E9F6E900E22
:1020B0009D6E040E9E6E330E9B6E000E9C6E780E0F
:1020C0000001F86F2B0EF96F69EC15F0420E00015C
:1020D000F86F2B0EF96F64EC15F0480E0001F86FE5
:1020E0002B0EF96F6EEC15F0000E2B6E000E306E9D
:1020F000000E2F6E400E516E000E2E6E000E2D6ED5
:10210000000E2C6E0E01C58B12003E6E04EC15F015
:102110003E5001EC12F097AC05D0978497B4FED7EF
:10212000FF0E12003C5001EC12F097AC04D09784E3
:1021300097A4F6D7FDD7FEEC14F0050E316E000E15
:10214000326E000E336E000E346E98EC11F004EC1B
:1021500015F03E50010901EC12F097AC04D09784C1
:1021600097A4DED7FDD7978695A0FED70E01CD9117
:1021700092CF3DF0010ED5EC12F0FEEC14F03D5084
:102180001200000E0101806F000E816F000E826F41
:10219000000E836F10D0080E0001FC6FC90EE82EF0
:1021A000FED7FC2FFCD700D0010E01018027000EC6
:1021B0008123822383230001F8510101805D000106
:1021C000F951010181590001FA51010182598351EC
:1021D000800A0001FC6FFB51800AFC59D8B0120044
:1021E000DAD7ABEC15F00009D8B41200000E0101EB
:1021F000816F020E806F000E836F050E826F000EDE
:10220000856F5F0E846F000E876F000E866F000E65
:10221000896F010E886F46EC0AF009D0A9EC15F021
:102220000009D8B4FBD7E0EC11F03FEC12F0ABECB6
:1022300015F00009D8B41200F1D7A7EC15F04BEC5B
:1022400014F0F9EC0CF08EEC14F09AEC15F091EC23
:1022500012F0F2EC14F0A8EC12F0BDEC11F043EC2B
:1022600010F0F8EC14F022EC12F0000E3DEC14F03B
:102270000009D8A41200000E0001F96F000EF86FDB
:10228000000EFB6F010EFA6F60EC0FF012000F01F1
:102290000AB1A8EC13F00F010AB395EC13F00F018B
:1022A0000AB782EC13F00F010AB96FEC13F00F01BB
:1022B00012BB5CEC13F00F011AB749EC13F00F01DD
:1022C0001AB936EC13F00F011ABB23EC13F00F010F
:1022D0001ABD10EC13F00F011AAF1200FDEC12F052
:1022E0001200D80EF66E290EF76E000EF86E00EE94
:1022F00045F010EE0CF00900F5CFEEFFE550E1508F
:10230000FAE101EE00F0800EEE6AE806FDE100EE73
:1023100060F0700EEE6AE806FDE100EE01F0300EAE
:10232000EE6AE806FDE152905292000115EF0CF0C2
:10233000000E366E000E376E000E386E000E396ECF
:102340000DD0080E356ECA0EE82EFED7352EFCD7FE
:10235000010E3626000E3722382239223150365CE3
:1023600032503758335038583950800A356E34500F
:10237000800A3558D8B01200E4D70E01CA91F28015
:10238000760E0001F86F2B0EF96F55EC15F00E016B
:10239000C281CA93F282740E0001F86F2B0EF96F9E
:1023A00050EC15F00E01C283CA95F284720E000142
:1023B000F86F2B0EF96F4BEC15F00E01C285120071
:1023C0002C50D8B4FDD7600E2D24D96EDA6A000ED9
:1023D000DA22DF502B6E000E2D24D96EDA6A010E40
:1023E000DA22DF500001F86F2D2A3F0E2D6402D053
:1023F000000E2D6E0E01C59B2C06C58B0001F851F9
:1024000012003B6E3BC092FF96AE18D0969E000E17
:10241000326E000E316E030E346EE80E336E000E17
:10242000366E000E356E000E386E000E376E000EE2
:102430003A6E010E396E2EEC0BF012000E01CDB18A
:102440001200FCD70F01199589840A0E0E01B76F8F
:102450000F0EF16F0F01199789860B0E0E01B86FE1
:10246000100EF26F000E956E280E966E000E976E8F
:10247000000E986EEF0E936ECD93C583120000018F
:10248000F86F5150D8B4FDD70E01C5B903D0F8C0CC
:102490009AFF10D0C599400E3024D96EDA6A010E29
:1024A000DA22F8C0DFFF302A3F0E306402D0000E7F
:1024B000306E5106C58912000101816F010181054D
:1024C000D8A402D0800E0CD08151D8A402D0600EC6
:1024D00007D0020E8119D8A402D0200E01D0000E20
:1024E000806F805110090001FE6F000E67EC14F040
:1024F00012003B6E3B508CEC15F03A508CEC15F012
:102500000AD0010E316E000E326E000E336E000ED8
:10251000346E98EC11F0D2EC14F00009D8A412003B
:10252000F0D7040EB96E000EB86E000EBA6E9A0E99
:10253000B66E000EB56E0E01CE97C6875A0E00011C
:10254000F86F2B0EF96F0FEC15F0990EB76E1200A5
:10255000040EBF6E000EBE6E000EC06E9A0EBC6EF4
:10256000000EBB6E0E01CE93C6835C0E0001F86FA9
:102570002B0EF96F14EC15F0900EBD6E1200400E8C
:10258000516010D0400E2F24D96EDA6A010EDA2283
:10259000DF509A6E2F2A3F0E2F6402D0000E2F6E4E
:1025A000512A12000E01C5991200326E3250D8B471
:1025B00003D0316A312A01D0316A313A314697501D
:1025C0003118DF0B3118976E978897B8FED70E0138
:1025D000CD9112000101806F040E01018019D8A471
:1025E00002D0800E01D0400E816F81510C09000194
:1025F000FE6F010E67EC14F012000001D851D911E2
:10260000D8B40BD001D809D00500FA6ED851FD6EB0
:10261000D951FE6EFF6AFA5012000F011A9F120084
:102620000001DA51DB11D8B40BD001D809D0050074
:10263000FA6EDA51FD6EDB51FE6EFF6AFA5012003F
:102640000F011A9D12000001DC51DD11D8B40BD02E
:1026500001D809D00500FA6EDC51FD6EDD51FE6E29
:10266000FF6AFA5012000F011A9B12000001DE519E
:10267000DF11D8B40BD001D809D00500FA6EDE51B5
:10268000FD6EDF51FE6EFF6AFA5012000F011A99BB
:1026900012000001E051E111D8B40BD001D809D0EB
:1026A0000500FA6EE051FD6EE151FE6EFF6AFA50D0
:1026B00012000F011A9712000001E251E311D8B481
:1026C0000BD001D809D00500FA6EE251FD6EE3513E
:1026D000FE6EFF6AFA5012000F01129B12000001F9
:1026E000E451E511D8B40BD001D809D00500FA6E39
:1026F000E451FD6EE551FE6EFF6AFA5012000F01C3
:102700000A9912000001E651E711D8B40BD001D8A4
:1027100009D00500FA6EE651FD6EE751FE6EFF6AC4
:10272000FA5012000F010A9712000001E851E91156
:10273000D8B40BD001D809D00500FA6EE851FD6E6F
:10274000E951FE6EFF6AFA5012000F010A9312005F
:102750000001EA51EB11D8B40BD001D809D0050023
:10276000FA6EEA51FD6EEB51FE6EFF6AFA501200EE
:102770000F010A9112000001FC6F86868698000105
:10278000FC51E5EC14F00001FB51E5EC14F0000104
:10279000FD6F8688FD5112000E01CE97014A022A74
:1027A000025004E10A0E015CD8A01200DDEC13F027
:1027B000000E026E000E016E12000001D051D11108
:1027C000D8B4120001D812000500FA6ED051FD6E87
:1027D000D151FE6EFF6AFA5012000001F651F71156
:1027E000D8B4120001D812000500FA6EF651FD6E41
:1027F000F751FE6EFF6AFA5012000001F051F1111C
:10280000D8B4120001D812000500FA6EF051FD6E26
:10281000F151FE6EFF6AFA5012000001F251F311FD
:10282000D8B4120001D812000500FA6EF251FD6E04
:10283000F351FE6EFF6AFA5012000001F451F511D7
:10284000D8B4120001D812000500FA6EF451FD6EE2
:10285000F551FE6EFF6AFA501200000E2E24D96E5A
:10286000DA6A010EDA2299CFDFFF2E2A3F0E2E649C
:1028700002D0000E2E6E2C2A12000001FA6F05D035
:1028800096EC15F01200000E12000001FA51000A39
:10289000D8B4F6D7F8D7000E0E01E16F000EE26F44
:1028A000000EE36F000EE46F000EE56F000EE66FA2
:1028B00012000001F96F0001F951F925FA6FF85182
:1028C000D8B403D0FA514009FA6FFA51120000014E
:1028D000FF6FFEC0FBF0000E0001F86FFF5159ECD6
:1028E00014F0BBEC13F0120052B2DCEF14F0000154
:1028F000F86FF8C092FE0E01CDA5FDD7CD9592518F
:102900001200356E86868698355091EC15F034505D
:1029100091EC15F0366E868836501200610E0E016D
:10292000D86F000EDA6F000EDC6F070EDE6F000E40
:10293000DD6F1200500E3C6E2A5085EC10F0406E98
:102940004004D8A412000CEC0FF01200326E32508A
:102950003224336E3150D8B403D033504009336E33
:10296000335012000001F86F0001F851F825F96F9B
:10297000F951FE0BF96FF9511200376EFF0E346EEC
:10298000010E316E3750A6EC14F081EC14F01200F9
:10299000336E86888696335091EC15F0346E8686B9
:1029A000345012000E0EBDEC14F0386E38AA02D06E
:1029B000010E1200000E1200316E31C092FE0E01A7
:1029C000CDA5FDD7CD95925112000001F96F000100
:1029D000F95174EC14F0120003000300030003002B
:1029E00003000300A80E0F01336F1F0E346F120097
:1029F000010E0F013F6F900E3E6F1200978497B447
:102A0000FED70E01CD911200978097B0FED70E0130
:102A1000CD911200700EB2EC14F02A6E1200F8C0C4
:102A2000D0F0F9C0D1F01200F8C0F6F0F9C0F7F01C
:102A30001200F8C0D8F0F9C0D9F01200F8C0DAF0EE
:102A4000F9C0DBF01200F8C0DCF0F9C0DDF01200D4
:102A5000F8C0DEF0F9C0DFF01200F8C0E0F0F9C015
:102A6000E1F01200F8C0E2F0F9C0E3F01200F8C0A3
:102A7000E4F0F9C0E5F01200F8C0E6F0F9C0E7F0C4
:102A80001200F8C0E8F0F9C0E9F01200F8C0EAF06E
:102A9000F9C0EBF01200F8C0F0F0F9C0F1F012004C
:102AA000F8C0F2F0F9C0F3F01200F8C0F4F0F9C089
:102AB000F5F01200F8C0EEF0F9C0EFF01200F8C027
:102AC000ECF0F9C0EDF01200F8C0D4F0F9C0D5F088
:102AD0001200F8C0D6F0F9C0D7F01200F8C0D2F05A
:102AE000F9C0D3F012000E01CDA51200CD95120051
:102AF0000E01CE93EDEC13F012000E01CA95FDEC21
:102B000013F012000E01CA930DEC14F012000E0126
:102B1000CA911DEC14F01200356E3550C8EC14F05B
:102B20001200326E3250DCEC14F01200000EABECEE
:102B30000EF01200840E0F01316F12000E01CD93C2
:102B400012009D989D8812002DEC14F01200F29A4C
:102B50001200515012002C501200120012001200EC
:102B600012001200120012001200120012001200D5
:0A2B70001200120012001200120001
:020000040020DA
:10000000FF0FFF0FFF0FFF0FFF0FFF0FFF0FFF0F80
:020000040030CA
:0C0000008CFFFFFF9FFFFFFFFFFFFFFFD3
:00000001FF
