:020000040000FA
:020000001928BD
:100008007E1480314E01161A0C1E0C28BD211728AB
:100018000B1F172899188F1C1328C6211728191881
:100028000F1C172825207E1009001A28FD01400101
:10003800AB01AC01AD01AE01AF01B0017E104001D2
:1000480086284E010F1043018F1D080000309321B0
:1000580043010C080F1D7B28503040013006031D5A
:1000680037280130562851303006031D58282D08EE
:10007800F9000130F935890B3E282C08FA000230C6
:10008800FA35890B44282B08FB000230FB35FF3E6C
:10009800031D4A287B357A0779072E07FC007C0860
:1000A800A100210843018C000030F3000030F20069
:1000B8000030F1000130F0003621430110164E01E6
:1000C8000F1C63280F104301111B0800FF308C0020
:1000D8000030F3000030F2000030F1000130F00091
:1000E8003621430110164E010F18662877280F1C79
:1000F8007B280030932143010C08F900790840015E
:10010800B0000800B8218B170B17C2304001A200BD
:100118000130A300B22140019A110030A50000303F
:10012800A4000130A300F430A200DA2040019A159F
:100138000030A5000030A4000130A300F430A20074
:10014800DA2040012F03031DD22800300E1A013097
:10015800AE0000308E1A0130AD0000300C1A0130AC
:10016800AC0000308C1A0130AB00AF019A1100309E
:10017800A5000030A4000030A3006430A200DA20FB
:1001880040019A151A110030A5000030A400003073
:10019800A3000130A200DA2040011A150030A500A2
:1001A8000030A4000030A3006430A32800304001D0
:1001B800AA000030A9000030A8000030A7002A08D3
:1001C800803AA6002508803A2602031DF52824084F
:1001D8002902031DF52823082802031DF5282208F3
:1001E80027020318080003304001A6009730890B46
:1001F800FB28A60BFB28003201304001A70700307E
:10020800A83D0030A93D0030AA3DE32840019801EF
:1002180004309A0037309200333094007E01CE01CA
:10022800B801B901CF01BA010C30D0003730BB009A
:100238003F30D1003F113E113D15D1304001A200A1
:100248000130A300B2214E01161615307E01A00020
:1002580010307D01C50016307E01A10011307D01EE
:10026800C60008000030F8000030F7000030F60043
:100278000030F5007808803AF4007308803A740278
:10028800031D502972087702031D50297108760250
:10029800031D502970087502031808000330F40084
:1002A8009830890B5529F40B55290130F507003092
:1002B800F63D0030F73D0030F83D3E297E014E10F6
:1002C8004001141410307D01C50015307E01A000D6
:1002D800CE104001941411307D01C60016307E0105
:1002E800A10043018F012630900080309100243016
:1002F8009200E0308D00FF308E004E018F1099146F
:1003080019140800400131083204031990293208F1
:100318008A0031080A0081317E013F110800F0008F
:100328007008031D992940019A104E010F1C992944
:100338000F1040019A140800623051018D008F019E
:100348009101063093009001920108004F01960137
:100358009701980199019A019B010800400123081F
:10036800B2002208B1000800AA210A21A021CF2149
:1003780008007E013F1D0800862108004001AF01EA
:10038800AF0A08004E018F100800513400340134C0
:0C039800003450340034622108000800DA
:020000040001F9
:0A000E00EC3FFF3F9F3FFF3FFF3F25
:00000001FF
