:020000040000FA
:020000001928BD
:100008007E1480314E01161A0C1E0C286221172806
:100018000B1F172899188F1C13286A2117281918DD
:100028000F1C17287A207E1009001A28F001F10108
:10003800F201F301F401F5014001AB017E1040012A
:1000480025285D218B170B1767304001A000013070
:10005800A100572140019A110030A3000030A200EE
:100068000130A100F430A000C32040019A150030EF
:10007800A3000030A2000130A100F430A000C3208A
:100088007403031D7128003040010E1A0130F3007B
:1000980000308E1A0130F20000300C1A0130F100E5
:1000A80000308C1A0130F000F4019A110030A300DE
:1000B8000030A2000030A1006430A000C32040013D
:1000C8009A151A110030A3000030A2000030A100D8
:1000D8000130A000C32040011A1500304001A300E0
:1000E8000030A2000030A100643042284E010F10F9
:1000F80043018F1D0800911211164E010F1C812813
:100108000F1043010C080F1DB42850307506031D4D
:100118008F280130AE2851307506031DAF287208AC
:10012800F6000130F635890B96287108F700023081
:10013800F735890B9C287008F8000230F835FF3E27
:10014800031DA2287835770776077307F900790821
:10015800FB007B088C004E010F1CAF280F10080015
:1001680010160F1CB528911211164E010F1CB92834
:100178000F1043010C08F6007608F500080000305F
:100188004001A8000030A7000030A6000030A500FC
:100198002808803AA4002308803A2402031DDE2898
:1001A80022082702031DDE2821082602031DDE2857
:1001B800200825020318080003304001A4009730E6
:1001C800890BE428A40BE428003201304001A5077C
:1001D8000030A63D0030A73D0030A83DCC284001A6
:1001E800980104309A0037309200333094007E0131
:1001F800CE01B801B901CF01BA010C30D0003730B7
:10020800BB003F30D1003F113E113D157530400114
:10021800A0000130A10057214E01161615307E01AD
:10022800A00010307D01C50016307E01A1001130FC
:100238007D01C6000800400114147E014E104001E3
:1002480094147E01CE1043018F0126309000910155
:1002580024309200FE308D00FF308E0092164E0141
:100268008F10991419140800400129082A04031949
:1002780042292A088A0029080A0081317E013F1193
:100288000800623051018D008F0191010630930002
:100298009001920108004F01960197019801990178
:1002A8009A019B01080040012108AA002008A90022
:1002B80008004F21F3204521732108007E013F1DCE
:1002C800080038210800F401F40A08004E018F10D4
:1002D80008005134003401340034503400341F21F4
:0402E8000800080002
:020000040001F9
:0A000E00EC3FFF3F9F3FFF3FFF3F25
:00000001FF
